:100000000C9434070C945C070C945C070C943F1719
:100010000C943F170C943F170C945C070C945C07EE
:100020000C945C070C945C070C945C070C945C07C4
:100030000C945C070C945C070C945C070C945C07B4
:100040000C94F5160C945C070C94C3160C949D1636
:100050000C945C070C945C070C945C070C945C0794
:100060000C94B7170C945C072D2D3A2D2D00000031
:100070000000240027002A00000000080002010000
:1000800000030407000000000000000031303A3592
:10009000323A3238004E6F762032352032303233E9
:1000A0000031303A35323A3238004E6F76203235F0
:1000B00020323032330042656C6C2053656B6F6CBC
:1000C00061682056320020002148696475706B61B8
:1000D0006E20416D706C69200020002C00202020D3
:1000E00020200020002D2020202020202020202043
:1000F0002020202020004A616D2050656C616A61DB
:1001000072616E203120004A616D2050656C616A19
:100110006172616E203220004A616D2050656C6111
:100120006A6172616E203320004A616D2050656CF7
:10013000616A6172616E203420004A616D205065F1
:100140006C616A6172616E203520004A616D2050D9
:10015000656C616A6172616E203620004A616D20B3
:1001600050656C616A6172616E203720004A616D72
:100170002050656C616A6172616E203820004A61AE
:100180006D2050656C616A6172616E203920005586
:1001900070616361726120202020202020202000D7
:1001A00049737469726168617420202020202020C6
:1001B00000497374697261686174312020202020C5
:1001C00020004973746972616861743220202020B4
:1001D00020200050756C616E672020202020202098
:1001E0002020200050756C616E6720416B682050A4
:1001F000656B616E00303031382D436F7374756DEF
:10020000312020202000303031392D436F73747538
:100210006D322020202000303032302D436F737437
:10022000756D332020202000303032312D436F7324
:1002300074756D342020202000303032322D436F11
:100240007374756D352020202000303032332D43FB
:100250006F7374756D362020202000303032342DBD
:10026000436F7374756D3720202020003030323595
:100270002D436F7374756D3820202020003030328C
:10028000362D436F7374756D392020202000303077
:1002900032372D436F7374756D313020202000305C
:1002A0003032382D436F7374756D3131202020004A
:1002B000303032392D436F7374756D313220202008
:1002C00000303033302D436F7374756D313320201F
:1002D0002000303033312D436F7374756D3134200D
:1002E000202000303033322D436F7374756D3135FB
:1002F00020202000303033332D436F7374756D31FF
:100300003620202000303033342D436F7374756DE8
:10031000313720202000303033352D436F73747512
:100320006D313820202000303033362D436F737408
:10033000756D313920202000303033372D436F73F5
:1003400074756D323020202000303033382D436FEB
:100350007374756D323120202000303033392D43D5
:100360006F7374756D323220202000303034302DA0
:10037000436F7374756D3233202020003030343178
:100380002D436F7374756D3234202020003030346B
:10039000322D436F7374756D32352020200030305C
:1003A00034332D436F7374756D3236202020003046
:1003B0003034342D436F7374756D32372020200034
:1003C000303034352D436F7374756D3238202020F2
:1003D00000303034362D436F7374756D3239202000
:1003E0002000303034372D436F7374756D333020F7
:1003F000202000303034382D436F7374756D3331E5
:1004000020202000303034392D436F7374756D33E4
:100410003220202000303035302D436F7374756DDD
:10042000333320202000303035312D436F73747505
:100430006D333420202000303035322D436F7374FB
:10044000756D333520202000303035332D436F73E8
:1004500074756D333620202000303035342D436FD5
:100460007374756D333720202000303035352D43BF
:100470006F7374756D333820202000303035362D81
:10048000436F7374756D3339202020003030353759
:100490002D436F7374756D3430202020003030355B
:1004A000382D436F7374756D343120202000303047
:1004B00035392D436F7374756D3432202020003030
:1004C0003036302D436F7374756D34332020200027
:1004D000303036312D436F7374756D3434202020E5
:1004E00000303036322D436F7374756D34352020F3
:1004F0002000303036332D436F7374756D343620E1
:10050000202000303036342D436F7374756D3437CE
:1005100020202000303036352D436F7374756D34D4
:100520003820202000303036362D436F7374756DBF
:10053000343920202000303036372D436F737475E6
:100540006D353020202000303036382D436F7374E5
:10055000756D353120202000303036392D436F73D2
:1005600074756D353220202000303037302D436FC8
:100570007374756D353320202000303037312D43B2
:100580006F7374756D353420202000303037322D74
:10059000436F7374756D353520202000303037334C
:1005A0002D436F7374756D35362020200030303741
:1005B000342D436F7374756D353720202000303033
:1005C00037352D436F7374756D353820202000301A
:1005D0003037362D436F7374756D35392020200008
:1005E000303037372D436F7374756D3630202020CF
:1005F00000303037382D436F7374756D36312020DD
:100600002000303037392D436F7374756D363220CA
:10061000202000303038302D436F7374756D3633C1
:1006200020202000303038312D436F7374756D36C3
:100630003420202000303038322D436F7374756DB4
:10064000363520202000303038332D436F737475D9
:100650006D363620202000303038342D436F7374CF
:10066000756D363720202000303038352D436F73BC
:1006700074756D363820202000303038362D436FA9
:100680007374756D363920202000303038372D4393
:100690006F7374756D373020202000303038382D5E
:1006A000436F7374756D3731202020003030383936
:1006B0002D436F7374756D37322020200030303930
:1006C000302D436F7374756D373320202000303028
:1006D00039312D436F7374756D373420202000300D
:1006E0003039322D436F7374756D373520202000FB
:1006F000303039332D436F7374756D3736202020B9
:1007000000303039342D436F7374756D37372020C6
:100710002000303039352D436F7374756D373820B4
:10072000202000303039362D436F7374756D3739A2
:1007300020202000303039372D436F7374756D38A9
:100740003020202000303039382D436F7374756DA0
:10075000383120202000303039392D436F737475C3
:100760006D383220202000303130302D436F7374CB
:10077000756D383320202000303130312D436F73B8
:1007800074756D383420202000303130322D436FA5
:100790007374756D383520202000303130332D438F
:1007A0006F7374756D383620202000303130342D51
:1007B000436F7374756D3837202020003031303529
:1007C0002D436F7374756D38382020200030313020
:1007D000362D436F7374756D383920202000303109
:1007E00030372D436F7374756D3930202020003001
:1007F0003130382D436F7374756D393120202000EE
:10080000303130392D436F7374756D3932202020AB
:1008100000303131302D436F7374756D39332020C2
:100820002000303131312D436F7374756D393420B0
:10083000202000303131322D436F7374756D39359E
:1008400020202000303131332D436F7374756D39A2
:100850003620202000303131342D436F7374756D94
:10086000393720202000303131352D436F737475B6
:100870006D393820202000303131362D436F7374AC
:10088000756D393920202000303131372D436F7399
:1008900074756D313030202000303131382D436F88
:1008A0007374756D313031202000303131392D4372
:1008B0006F7374756D313032202000303132302D3D
:1008C000436F7374756D3130332020003031323115
:1008D0002D436F7374756D31303420200030313208
:1008E000322D436F7374756D3130352020003031F7
:1008F00032332D436F7374756D31303620200030E4
:100900003132342D436F7374756D313037202000D0
:10091000303132352D436F7374756D31303820208E
:1009200000303132362D436F7374756D313039209C
:100930002000303132372D436F7374756D31313093
:10094000202000303132382D436F7374756D313192
:1009500031202000303132392D436F7374756D3181
:100960003132202000303133302D436F7374756D78
:10097000313133202000303133312D436F737475A2
:100980006D313134202000303133322D436F737498
:10099000756D313135202000303133332D436F7385
:1009A00074756D313136202000303133342D436F72
:1009B0007374756D313137202000303133352D435C
:1009C0006F7374756D313138202000303133362D1E
:1009D000436F7374756D31313920200030313337F6
:1009E0002D436F7374756D313230202000303133F8
:1009F000382D436F7374756D3132312020003031E2
:100A000033392D436F7374756D31323220200030CD
:100A10003134302D436F7374756D313233202000C3
:100A2000303134312D436F7374756D313234202081
:100A300000303134322D436F7374756D313235208F
:100A40002000303134332D436F7374756D3132367D
:100A5000202000303134342D436F7374756D313282
:100A600037202000303134352D436F7374756D316C
:100A70003238202000303134362D436F7374756D59
:100A8000313239202000303134372D436F73747583
:100A90006D313330202000303134382D436F737482
:100AA000756D313331202000303134392D436F736F
:100AB00074756D313332202000303135302D436F65
:100AC0007374756D313333202000303135312D434F
:100AD0006F7374756D313334202000303135322D11
:100AE000436F7374756D31333520200030313533E9
:100AF0002D436F7374756D313336202000303135DE
:100B0000342D436F7374756D3133372020003031CD
:100B100035352D436F7374756D31333820200030B7
:100B20003135362D436F7374756D313339202000A4
:100B3000303135372D436F7374756D31343020206B
:100B400000303135382D436F7374756D3134312079
:100B50002000303135392D436F7374756D31343267
:100B6000202000303136302D436F7374756D313471
:100B700033202000303136312D436F7374756D3161
:100B80003434202000303136322D436F7374756D4C
:100B9000313435202000303136332D436F73747576
:100BA0006D313436202000303136342D436F73746C
:100BB000756D313437202000303136352D436F7359
:100BC00074756D313438202000303136362D436F46
:100BD0007374756D313439202000303136372D4330
:100BE0006F7374756D313530202000303136382DFB
:100BF000436F7374756D31353120200030313639D3
:100C00002D436F7374756D313532202000303137CC
:100C1000302D436F7374756D3135332020003031C2
:100C200037312D436F7374756D31353420200030AA
:100C30003137322D436F7374756D31353520200097
:100C4000303137332D436F7374756D313536202055
:100C500000303137342D436F7374756D3135372063
:100C60002000303137352D436F7374756D31353851
:100C7000202000303137362D436F7374756D313558
:100C800039202000303137372D436F7374756D3143
:100C90003630202000303137382D436F7374756D36
:100CA000313631202000303137392D436F73747560
:100CB0006D313632202000303138302D436F73745F
:100CC000756D313633202000303138312D436F734C
:100CD00074756D313634202000303138322D436F39
:100CE0007374756D313635202000303138332D4323
:100CF0006F7374756D313636202000303138342DE5
:100D0000436F7374756D31363720200030313835BC
:100D10002D436F7374756D313638202000303138B3
:100D2000362D436F7374756D3136392020003031A4
:100D300038372D436F7374756D3137302020003094
:100D40003138382D436F7374756D31373120200081
:100D5000303138392D436F7374756D31373220203F
:100D600000303139302D436F7374756D3137332056
:100D70002000303139312D436F7374756D31373444
:100D8000202000303139322D436F7374756D313747
:100D900035202000303139332D436F7374756D3138
:100DA0003736202000303139342D436F7374756D20
:100DB000313737202000303139352D436F7374754A
:100DC0006D313738202000303139362D436F737440
:100DD000756D313739202000303139372D436F732D
:100DE00074756D313830202000303139382D436F23
:100DF0007374756D313831202000303139392D430D
:100E00006F7374756D313832202000303230302DE0
:100E1000436F7374756D313833202000000000007B
:100E200023002600290000000000250028002B00D8
:100E30000404040404040404020202020202030380
:100E40000303030301020408102040800102040888
:100E500010200102040810201F1C1F1E1F1E1F1F30
:100E60001E1F1E1F7F19C22311241FBECFEFD8E003
:100E7000DEBFCDBF12E0A0E0B1E0ECE2FEE402C0D4
:100E800005900D92AC3EB107D9F726E0ACEEB2E08A
:100E900001C01D92AB3AB207E1F717E0C3E3D7E018
:100EA00004C02197FE010E942B24C233D107C9F749
:100EB0000E94981A0C9409270C9400000895089534
:100EC000DC01ED91FC910190F081E02D0994EF920D
:100ED000FF920F931F93CF93DF938C017B01D0E0A0
:100EE000C0E0F701EC0FFD1F6491662361F0D801AB
:100EF000ED91FC910190F081E02DC8010995892BBD
:100F000011F02196EECFCE01DF91CF911F910F917D
:100F1000FF90EF900895AF92BF92CF92DF92EF9241
:100F2000FF920F931F93CF93DF936C017B018B0193
:100F3000040F151FEB015E01AE18BF08C017D107E3
:100F400059F06991D601ED91FC910190F081E02D6D
:100F5000C6010995892B79F7C501DF91CF911F91C2
:100F60000F91FF90EF90DF90CF90BF90AF900895DA
:100F7000FC01538D448D252F30E0842F90E0821B9F
:100F8000930B541710F0CF96089501970895FC0124
:100F9000918D828D981761F0A28DAE0FBF2FB11D7C
:100FA0005D968C91928D9F5F9F73928F90E00895D4
:100FB0008FEF9FEF0895FC01918D828D981731F08E
:100FC000828DE80FF11D858D90E008958FEF9FEFE2
:100FD0000895FC01918D228D892F90E0805C9F4FB8
:100FE000821B91098F739927089587E595E00E94E8
:100FF000E90721E0892B09F420E0822F089580E0A1
:1010000090E0892B29F00E94F50781110C940000D3
:101010000895FC01A48DA80FB92FB11DA35ABF4F8D
:101020002C91848D90E001968F739927848FA689E7
:10103000B7892C93A089B1898C91837080648C933B
:10104000938D848D981306C00288F389E02D8081EA
:101050008F7D80830895EF92FF920F931F93CF931C
:10106000DF93EC0181E0888F9B8D8C8D98131AC0E3
:10107000E889F989808185FF15C09FB7F894EE89CA
:10108000FF896083E889F989808183708064808327
:101090009FBF81E090E0DF91CF911F910F91FF9072
:1010A000EF900895F62E0B8D10E00F5F1F4F0F731A
:1010B0001127E02E8C8D8E110CC00FB607FCFACFD5
:1010C000E889F989808185FFF5CFCE010E94090862
:1010D000F1CFEB8DEC0FFD2FF11DE35AFF4FF082A6
:1010E0009FB7F8940B8FEA89FB8980818062CFCF0C
:1010F000CF93DF93EC01888D8823B9F0AA89BB894F
:10110000E889F9898C9185FD03C0808186FD0DC039
:101110000FB607FCF7CF8C9185FFF2CF808185FF5A
:10112000EDCFCE010E940908E9CFDF91CF9108955C
:10113000833081F028F4813099F08230A9F008954D
:101140008730A9F08830C9F08430B1F480918000F4
:101150008F7D03C0809180008F77809380000895F9
:1011600084B58F7784BD089584B58F7DFBCF809142
:10117000B0008F778093B00008958091B0008F7D8C
:10118000F9CFCF93DF93282F30E0F901E858FF4FD4
:101190008491F901EC5BF14FD491F901E05DF14FDD
:1011A000C491CC23A1F081110E949808EC2FF0E0AB
:1011B000EE0FFF1FE45EF14FA591B491EC91ED238A
:1011C00081E090E009F480E0DF91CF91089580E024
:1011D00090E0FACF1F93CF93DF93282F30E0F901EF
:1011E000E858FF4F8491F901EC5BF14FD491F9017C
:1011F000E05DF14FC491CC23A9F0162F81110E941C
:101200009808EC2FF0E0EE0FFF1FEA5DF14FA5917B
:10121000B4918FB7F894EC91111108C0D095DE23EA
:10122000DC938FBFDF91CF911F910895DE2BF8CF14
:10123000CF93DF9390E0FC01EC5BF14F2491805D54
:10124000914FFC0184918823D1F090E0880F991F81
:10125000FC01E259FF4FA591B491FC01EA5DF14F09
:10126000C591D49161110EC09FB7F8948C91E22F73
:10127000E0958E238C932881E223E8839FBFDF9142
:10128000CF9108958FB7F894EC91E22BEC938FBF38
:10129000F6CF0F931F93CF93DF93EC01162F042FFC
:1012A0001B821A8288EE93E0A0E0B0E08C839D83DD
:1012B000AE83BF8388EF91E0998388831F8A1E8A5B
:1012C000198E188E1B8E1A8E1D8E1C8E6E8D6E7F43
:1012D0006D7F6E8F6695617081E06827842F0E9414
:1012E000EA0861E0802F0E941809802F90E0FC013D
:1012F000EC5BF14FE491E88BFC01E05DF14FE49190
:10130000F0E0EE0FFF1FEA5DF14F859194919A8B0B
:10131000898B60E0812F0E9418098E8D81FD04C0A9
:1013200061E0812F0E94EA081C87812F90E0FC0178
:10133000EC5BF14FE491ED87FC01E05DF14FE4914E
:10134000F0E0EE0FFF1FE45EF14F859194919F87CF
:101350008E87DF91CF911F910F9108953FB7F89439
:1013600080917C0390917D03A0917E03B0917F03D7
:1013700026B5A89B05C02F3F19F00196A11DB11DF0
:101380003FBFBA2FA92F982F8827BC01CD01620F2C
:10139000711D811D911D42E0660F771F881F991FE7
:1013A0004A95D1F708958F929F92AF92BF92CF92B4
:1013B000DF92EF92FF926B017C010E94AE094B011C
:1013C0005C01C114D104E104F104B9F00E94AE093A
:1013D000681979098A099B09683E7340810591055E
:1013E00080F321E0C21AD108E108F10888EE880EE6
:1013F00083E0981EA11CB11CE4CFFF90EF90DF901A
:10140000CF90BF90AF909F908F9008952FB7F89492
:10141000609178037091790380917A0390917B03B6
:101420002FBF08950F931F93809147069091480610
:10143000DC01ED91FC910084F185E02D0995892B6B
:1014400009F4D7C060E070E0CB010E94D30920917D
:1014500065068091470690914806DC01ED91FC916C
:101460000284F385E02D21110BC00995809351066C
:101470008E37D1F6809165068F5F80936506D4CF55
:10148000099590916506E92FF0E0E95BF94F8287B5
:101490009230B9F09930D9F09130A9F48F3F99F09A
:1014A0001092650681E08093670610926A0610929A
:1014B000690680936B0610926C0680E01F910F9175
:1014C0000895863069F79F5F90936506ADCF8F3E94
:1014D00039F72091530680915206280F3327331F86
:1014E000E0915406C9018E0F911D20915506280FD9
:1014F000392F311D4091560650E0240F351F809141
:10150000570690E06091580670E0762F6627F091BC
:1015100059066F0F711D280F391F3195219531091B
:101520006217730709F0BCCF10926506E13419F415
:1015300010926C062FC0E0936806542F4427840F46
:10154000951F90936A0680936906EA53E63108F086
:1015500046C0F0E0E255F54F0C942B24DB0AE30A79
:10156000ED0AC40AED0ACD0AEB0AEF0AED0AED0A0C
:10157000ED0AED0AED0AED0AED0AED0AEF0AED0AB1
:10158000ED0AED0AED0AED0A85E08093670681E039
:1015900080936B0680916B0691CF80FF02C089E03B
:1015A000F4CF81FF02C084E0F0CF83709927892BAC
:1015B00089F38AE0EACF80FF02C087E0E6CF81FFAF
:1015C000E9CF82E0E2CF80FF02C088E0DECF81FF7A
:1015D000E1CF83E0DACF86E0D8CF8BE0D6CF81E0D1
:1015E0008093670610926A061092690680936B06D4
:1015F0009FCF80916C06882369F20E94060A0091B1
:10160000490610914A0620914B0630914C06601B0A
:10161000710B820B930B00914D0610914E06209199
:101620004F0630915006601771078207930708F440
:10163000B1CF109265061092670610926A0610925A
:10164000690681E036CF80935E06272F30E07093E5
:1016500060066093610640915D0690915C06490FBB
:101660005527551F840F952F911D40915F06840FBC
:10167000911D820F931F680F792F711D71956195D0
:1016800071097093620660936306442361F0809150
:101690006C06882341F060E070E0CB010E94D30922
:1016A0000E94120AF4CF8091470690914806DC010F
:1016B000ED91FC910280F381E02D4AE050E06BE572
:1016C00076E009950E94060A6093490670934A06DF
:1016D00080934B0690934C0680915F0691E08111B8
:1016E00001C090E090936C06811106C06AE070E042
:1016F00080E090E00C94D309089520917503309117
:1017000076032817390771F490917403809173035D
:10171000981741F0E0917403F0E0ED5CFC4F80819C
:1017200090E008958FEF9FEF08950895EF92FF9254
:101730000F931F93CF93DF93DC015C96ED90FC90A9
:101740005D97E114F10479F481E090E013969C93A5
:101750008E93129790E080E0DF91CF911F910F91CF
:10176000FF90EF9008955196ED91FC91529750960D
:101770008C915097982F90950FB75E962C915E970D
:10178000122F127021FD6095F8942081112319F118
:10179000282B2083E7012197F1F728E0462F50E01E
:1017A000308160FF1AC0382B3083E7012197F1F7B1
:1017B000BA0175956795215089F7112381F08081D1
:1017C000892380830FBF5C968D919C910197F1F7DF
:1017D00081E090E0C1CF2923DCCF3923E5CF908190
:1017E000892BEFCF209175033091760328173907A5
:1017F00061F4809173032091740390E0805C9F4FAB
:10180000821B91098F739927089590E080E00895D5
:10181000209175033091760328173907B9F4909118
:10182000740380917303981789F0E0917403F0E0DA
:10183000ED5CFC4F80812091740330E02F5F3F4FBF
:101840002F7333272093740390E008958FEF9FEF59
:101850000895FC0188EF91E0918380838091750366
:1018600090917603E817F90759F4A389B4899C91FC
:101870008589809589238C93109276031092750345
:101880000895CF93DF93FC01828D938D892B41F1D5
:10189000A0917503B0917603AE17BF0709F11097B9
:1018A00051F05396CD91DC915497988155968C9137
:1018B000809589238883868D8E7F868F109273030F
:1018C00010927403F0937603E0937503A389B489AF
:1018D0008C919589892B8C9381E0DF91CF9108952C
:1018E00080E0FBCFFC01138E128E118E108E178AB2
:1018F000168A8DE991E0958F848F84858631D8F59D
:101900002DEB30E0378B268B2BE931E0318F208FA8
:101910002CE231E0338F228F90916800883070F193
:1019200021E08E3008F420E081E001C0880F2A9584
:10193000EAF7892B8093680084852DE630E08830B3
:1019400050F02BE630E08E3030F02CE630E086317F
:1019500010F030E020E0348B238B282F30E08830EB
:1019600078F491E001C0990F8A95EAF7958B848D00
:10197000958D0197F1F7CF010C94410C84E0D9CFFC
:101980008E3040F42850310991E001C0990F2A951A
:10199000EAF7ECCF2E503109F7CFFC018381928119
:1019A00020813181203D47E0340710F0205D374031
:1019B000482F50E0E8E5FEE081E0891730F46491BB
:1019C000460F511D8F5F3196F8CF933038F0C90123
:1019D00083709927892B11F44F5F5F4F6DE671E09B
:1019E000269FC001279F900D369F900D11240596CC
:1019F0002D5F3F4F3695279536952795820F931F7C
:101A0000840F951F67E070E00E94F5238F5F0895B3
:101A10000895CF93DF93DC01ED91FC91A281B38116
:101A20001097B9F0EC012E814481558157FF0CC00D
:101A3000ED91FC9111970190F081E02D462FBC01B2
:101A4000CD01DF91CF910994422FFD01DF91CF911C
:101A50000994DF91CF910895CF92DF92EF92FF9298
:101A60001F93CF93DF93EC0188819981DC01ED9185
:101A7000FC910280F381E02D6A810995182F8881FD
:101A80009981DC01ED91FC910190F081E02D0995A7
:101A90006B01E881F9818481958191FF09C08C8176
:101AA0009D8190FDF1C091609D838C83D88ACF8603
:101AB0008C819D8181FFF8C02F813885A601421B52
:101AC000530BE881F981268137814217530708F4C7
:101AD000F4C08D7F9D838C838E818F3709F44AC13A
:101AE000E881F9818481958183709927892B59F147
:101AF0008C8187FF14C089859A859601281B390B34
:101B0000C901228533858217930748F062E0CE0130
:101B10000E94090D8C819D818F779D838C838C81A0
:101B20009D8183FF10C0E881F98129853A85A6014E
:101B3000421B530B9A01428553852417350718F031
:101B4000877F9D838C83E881F981848182FF1BC01C
:101B50008C819D81282F21701217A9F082FF13C05C
:101B600085FD11C02B853C85A601421B530B2485A6
:101B700035854217530738F080629D838C8364E07B
:101B8000CE010E94090DE881F981848183FF1AC08A
:101B90008C819D81282F21701217A1F082FF12C025
:101BA00086FF93C08D859E859601281B390B808901
:101BB00091892817390730F065E0CE010E94090DA0
:101BC000DE86CD868E81181709F477C01E838C813E
:101BD0009D81282F2170121749F0DC86CB86846006
:101BE0009D838C8360E0CE010E94090D8C819D81D4
:101BF000282F2170121361C0E881F9812481358179
:101C0000A90143705527452B29F082FD6DC0877FC0
:101C10009D838C832C813D81A9014072552725FF2E
:101C200005C0E881F981848186FDA0C026FF05C03A
:101C3000E881F981848187FD99C023FF05C0E8818F
:101C4000F981848184FD92C080E024FF0AC0E8818C
:101C5000F9818481958165E0969587956A95E1F78C
:101C600081702B783D832C83882309F481C066E042
:101C7000452B19F1CE01DF91CF911F91FF90EF908D
:101C8000DF90CF900C94090D8F8598899601281BC1
:101C9000390B828993892817390708F409CF67E03F
:101CA000CE010E94090D02CF2E81121709F414CF24
:101CB00082609D838C83D886CF82DF91CF911F91E4
:101CC000FF90EF90DF90CF9008952B853C85A60183
:101CD000421B530B268537854217530708F472CFF2
:101CE00080649D838C8368CF4B855C85B601641BC3
:101CF000750B408551856417750708F088CF21FF63
:101D000005C083FD15C08F7E9D838C838C819D8152
:101D100084FD7DCFDA86C9869C0128603D832C83B3
:101D2000E881F9812481358130FF1BC0886870CF3C
:101D300029853A85A601421B530B2285338542171C
:101D4000530708F787FF03C08F779D838C838C81AF
:101D50009D8180619D838C8363E0CE010E94090D8B
:101D6000D5CF62E0CE010E94090D54CF81E079CF3A
:101D700061E080CF1E83A1CF862F0C94C1080C9404
:101D8000060A20911003260F3327331F2132310515
:101D9000ECF420912D05FC0190E080E0243069F006
:101DA00082E00895A09110032191AC0140515D4F54
:101DB000A40FB52FB11D2C930196861798F380912F
:101DC0001003680F6093100380E0089581E0089588
:101DD00010922D0581E080932C051092070561E09B
:101DE00082E10E94EA0861E083E10E94EA08E9EBEF
:101DF000F0E080818E7F808380818D7F808388E486
:101E00008093B80085E48093BC0008951092E703A6
:101E10001092E60310923405109256050E94E80EC7
:101E20008EE597E09093E5038093E4038FE597E0D8
:101E30009093E3038093E2030895CF93DF9391E0BF
:101E40009093EF028823B9F0C091B800D091BA0006
:101E50008091BC008A7B8093BC0060E082E10E949C
:101E6000EA0860E083E10E94EA080E94E80ED0934D
:101E7000BA00C093B800DF91CF910895CF92DF925E
:101E8000EF92FF920F931F93CF93DF93D09156055C
:101E900081E0D13208F09CC0C09155050E94AE0986
:101EA0006B017C0180912D0581116CC082E08093D3
:101EB0002D0581E080932C058FEF80932B051092E8
:101EC0002A05D0932905A5E3B5E0E9E0F5E080E037
:101ED000D8138DC01092080580910805CC0FC82B2F
:101EE000C093080580910705813009F084C01092E5
:101EF00007050E94AE096B017C0180910805809363
:101F0000BB0080912F0590913005A0913105B091D3
:101F10003205892B8A2B8B2BA1F00E94AE090091F0
:101F20002F051091300520913105309132056C1943
:101F30007D098E099F09061717072807390708F436
:101F400042C08091BC0083FDD8CF85EC8093BC005B
:101F50000E94AE096B017C0180912D05823009F44D
:101F60004CC080912B058F3F09F469C080912B05EF
:101F7000803209F466C080912B05803309F463C078
:101F800084E026C080912F0590913005A091310505
:101F9000B0913205892B8A2B8B2B09F483CF0E94B9
:101FA000AE0900912F051091300520913105309137
:101FB00032056C197D098E099F0906171707280736
:101FC000390708F06FCF80912E050E941D0F85E024
:101FD000109234051092560510923305DF91CF917F
:101FE0001F910F91FF90EF90DF90CF9008959D91FA
:101FF00091938F5F6DCF85EEA9CF80912F05909142
:102000003005A0913105B0913205892B8A2B8B2B9D
:1020100009F4A2CF0E94AE0900912F05109130055E
:1020200020913105309132056C197D098E099F0987
:10203000061717072807390708F08ECFC4CF80E0AE
:10204000C7CF82E0C5CF83E0C3CFCF92DF92EF92BC
:10205000FF920F931F93CF93DF93D82FC62F613238
:1020600008F098C00E94AE096B017C0180912D059B
:1020700081116BC081E080932D0580932C059FEF2B
:1020800090932B0510922A059C0F9093290580931D
:10209000080580910805DD0FD82BD09308058091A5
:1020A0000705813009F078C0109207050E94AE093B
:1020B0006B017C01809108058093BB0080912F0506
:1020C00090913005A0913105B0913205892B8A2B72
:1020D0008B2BA1F00E94AE0900912F0510913005C5
:1020E00020913105309132056C197D098E099F09C7
:1020F000061717072807390708F448C08091BC0065
:1021000083FDD8CF85EC8093BC000E94AE096B01A3
:102110007C0180912D05813009F440C080912A0511
:102120008C1710F4C0912A05E9E0F5E0A8EEB3E0C1
:1021300080E08C1355C08C2FDF91CF911F910F91B0
:10214000FF90EF90DF90CF90089580912F059091B0
:102150003005A0913105B0913205892B8A2B8B2B4C
:1021600009F484CF0E94AE0900912F05109130052B
:1021700020913105309132056C197D098E099F0936
:10218000061717072807390708F070CF80912E052A
:102190000E941D0FC0E0CFCF85EEB5CF80912F05F7
:1021A00090913005A0913105B0913205892B8A2B91
:1021B0008B2B09F4AECF0E94AE0900912F05109130
:1021C000300520913105309132056C197D098E0959
:1021D0009F09061717072807390708F09ACFD6CFA7
:1021E00091919D938F5FA5CFE091E7038091E603E6
:1021F000E81730F4F0E0E851FC4F808190E008955A
:102200008FEF9FEF08959091E7038091E6032FEF02
:102210003FEF981748F4E92FF0E0E851FC4F208198
:1022200030E09F5F9093E703C90108958091E60332
:102230009091E703891B990B0895CF92DF92EF925B
:10224000FF920F931F93CF93DF937C01CB018A0101
:1022500020913305222389F0EB016B01C40ED51EBA
:10226000CC15DD0569F06991D701ED91FC910190E4
:10227000F081E02DC7010995F3CF642F0E94C10EB4
:10228000C801DF91CF911F910F91FF90EF90DF90E8
:10229000CF900895CF93DF931F92CDB7DEB76983B8
:1022A000209133052223F9F020915605203258F071
:1022B00021E030E0FC013383228390E080E00F9046
:1022C000DF91CF91089580913405E82FF0E0EB5C29
:1022D000FA4F998190838F5F8093340580935605E0
:1022E00081E090E0ECCF61E0CE0101960E94C10E4A
:1022F000F7CFCF93C62F91E09093330598E6909354
:1023000055051092340510925605682F84EF95E01C
:102310000E944A116C2F84EF95E00E944A11CF91E0
:102320000C943E0FFC01248131E03093330520935F
:10233000550510923405109256058385682B84EF5D
:1023400095E00E944A110C943E0F88E08093460667
:1023500060E08BE396E00C94921190E080E00895A9
:102360000F931F93CF93DF936111ECC0EC01809129
:10237000B40381119FC08A81843009F044C06AEFA0
:1023800070E080E090E00E94D30989E00E94C108DB
:102390008C010197C1F58091B503811134C00E9471
:1023A000A5110E94060A6093DE037093DF038093F9
:1023B000E0039093E1038091B9039091BA03892BD4
:1023C00009F0C5C01093BA030093B9030E94060A2E
:1023D0006093CE037093CF038093D0039093D10387
:1023E00060E088E00E94EA0881E08093B80380936F
:1023F000BE032091B6033091B7032130310509F0B7
:10240000B1C08093D2038A81863009F053C0009115
:102410008203109183030130110509F493C06AEF20
:1024200070E080E090E00E94D30989E00E94C1083A
:10243000019709F03FC08091B50381113BC00E9414
:10244000A5110E94060A6093DE037093DF03809358
:10245000E0039093E10360E088E00E94EA080F5FE8
:102460001F4F1093C9030093C8030E94060A60938C
:10247000CE037093CF038093D0039093D10381E078
:102480008093B8038093B4038093BE038093BD030D
:102490002091B6033091B7032130310541F42091EA
:1024A000B9033091BA032130310509F05EC081E0F3
:1024B0008093CB038A81853009F044C06AEF70E0D5
:1024C00080E090E00E94D3098091D903882361F0D5
:1024D0000E94A5110E94060A6093DE037093DF0339
:1024E0008093E0039093E10389E00E94C108892B67
:1024F00049F58091BC03882329F18091B403882396
:1025000009F10E94A5110E94060A6093DE037093F0
:10251000DF038093E0039093E10370E060E08EE0DE
:102520000E94230B8091B6039091B703019721F489
:1025300061E088E00E94EA081092B4031092BD03A3
:102540001092BE03DF91CF911F910F91089582E009
:1025500090E09093BA038093B90381E08093B8032D
:102560008093BE038093CB034ECF8093D203A2CF40
:10257000CF93DF93C0E0D0E18DE696E00E94F20BAE
:10258000892B11F42197C1F78DE696E00E94080C83
:10259000DF91CF910895DF92EF92FF920F931F93F7
:1025A000CF93DF93EC0181E08093330588E680933D
:1025B0005505109234051092560560E084EF95E0C1
:1025C0000E944A110E943E0F67E088E60E94251093
:1025D0001092E7038093E60384EF95E00E940311D5
:1025E0008F77282F30E094E0359527959A95E1F77D
:1025F000922F990F990F122F191B110F180F84EF9B
:1026000095E00E9403119C0144E0359527954A9579
:10261000E1F72F703327922F990F990F022F091B83
:10262000000F080F84EF95E00E9403119C0154E015
:10263000359527955A95E1F72F703327922F990FEB
:10264000990FF22EF91AFF0CF80E84EF95E00E9414
:10265000031184EF95E00E9403119C0164E035951D
:1026600027956A95E1F72F703327922F990F990FCD
:10267000E22EE91AEE0CE80E84EF95E00E940311B9
:102680009C0174E0359527957A95E1F72F703327F3
:10269000922F990F990FD22ED91ADD0CD80E84EFF4
:1026A00095E00E9403119C01E4E035952795EA9599
:1026B000E1F72F703327922F990F990F291B220FC3
:1026C000280F30E02053384F39832883DA82EB8299
:1026D000FD820E831F83CE010E94CD0C8C83CE0120
:1026E000DF91CF911F910F91FF90EF90DF900895B0
:1026F00091E09093330598E6909355051092340538
:1027000010925605682F84EF95E00E944A110E94AE
:102710003E0F61E088E60E9425101092E703809347
:10272000E60384EF95E00E94031108951F93CF9371
:10273000DF93EC0181E08093330588E680935505B3
:10274000109234051092560560E084EF95E00E94E7
:102750004A112F811AE0822F612F0E94E923682FEE
:10276000660F680F660F620F84EF95E00E944A11B2
:102770002E81822F612F0E94E923682F660F680F38
:10278000660F620F84EF95E00E944A112D81822F1F
:10279000612F0E94E923682F660F680F660F620F92
:1027A00084EF95E00E944A116C8184EF95E00E94CD
:1027B0004A112B81822F612F0E94E923682F660F17
:1027C000680F660F620F84EF95E00E944A112A811C
:1027D000822F612F0E94E923682F660F680F660F12
:1027E000620F84EF95E00E944A112881205D822FBC
:1027F000612F0E94E923682F660F680F660F620F32
:1028000084EF95E00E944A110E943E0F8FE00E94E3
:102810007813682F6F778FE0DF91CF911F910C9421
:1028200079110F931F93CF938C01C62F0E949211A1
:102830006C2F6460C8010E9492116C2F6B7FC801DD
:102840000E94921183EC90E00197F1F7CF911F91D4
:102850000F9108950F931F93CF938C01C62F607F24
:1028600061600E94111480E1C89FB0011124616071
:10287000C8010E94111481E090E0CF911F910F9147
:102880000895CF93C82F682F607F8BE396E00E9456
:10289000111480E1C89FB00111248BE396E0CF9121
:1028A0000C941114CF93DF93CDB7DEB728970FB6F2
:1028B000F894DEBF0FBECDBF98E0E6E4F1E0DE01A4
:1028C000119601900D929A95E1F790914406961712
:1028D00008F46FEF70E0660F771F21E030E02C0FF7
:1028E0003D1F620F731FFB019081890F806828963E
:1028F0000FB6F894DEBF0FBECDBFDF91CF910C9421
:10290000411481E00E9441148BE39FE10197F1F7AC
:1029100008950C94DB230C94D323FF920F931F9301
:10292000CF93DF9308E014E0D0E0C0E0F801F1902D
:102930008F01CE010E94D323F81621F06F2DCE0116
:102940000E94DB232196CF3FD10581F788E094E0F8
:10295000DF91CF911F910F91FF9008950F931F93D7
:10296000CF93DF9308E014E0D0E0C0E0CE010E94F6
:10297000D323F80181938F012196CF3FD105B1F781
:1029800080E091E00E948B14C82FD0E0D0938503A3
:10299000C093840381E091E00E948B1490E09093B7
:1029A0008303809382038AE091E00E948B1490E07D
:1029B0009093C2038093C1038BE091E00E948B143B
:1029C00090E09093B7038093B6038CE091E00E946F
:1029D0008B1490E09093EE028093ED028DE091E0F5
:1029E0000E948B1490E09093CD038093CC03BE01A2
:1029F00086E00E94230B8091ED029091EE028130DF
:102A00009105B9F41092D9030E94A5118091B603E3
:102A10009091B70360E0019729F41092BA031092E5
:102A2000B90361E088E0DF91CF911F910F910C9481
:102A3000EA0821E02093D9038230910569F480E609
:102A40009AEEA0E0B0E08093DA039093DB03A093CA
:102A5000DC03B093DD03DACF8330910529F480ECF9
:102A600094EDA1E0B0E0EFCF8430910529F480EE41
:102A700093E9A4E0B0E0E7CF059741F680EC97E258
:102A8000A9E0B0E0E0CFFB0101900020E9F7319729
:102A9000AF01461B570BDC01ED91FC910280F381E5
:102AA000E02D09948F929F92AF92BF920F931F9344
:102AB000CF93DF93CDB7DEB7A1970FB6F894DEBF03
:102AC0000FBECDBF19A2423008F44AE08E010F5D5F
:102AD0001F4F842E912CB12CA12CA50194010E9492
:102AE0000924E62FB901CA01EA3004F5E05DD801F6
:102AF000EE938D01232B242B252B79F790E080E09A
:102B0000109729F0BD0187E595E00E944315A19635
:102B10000FB6F894DEBF0FBECDBFDF91CF911F91EE
:102B20000F91BF90AF909F908F900895E95CDFCF99
:102B3000CF93DF93BC0187E595E00E944315EC013C
:102B400066E372E087E595E00E9443158C0F9D1FB8
:102B5000DF91CF9108950C9443150F931F93CF935A
:102B6000DF93209138068091390690E03CE3239F63
:102B7000800D911D11244091370628E030E0241B80
:102B8000310961E070E002C0660F771F2A95E2F715
:102B9000C091B0035091B103E8E0F4E040E0AFEF42
:102BA000BFEF0CE320812223C1F0238130E02623F4
:102BB0003723232B91F0D1811281212F30E0D09F38
:102BC000200D311D11248217930738F42A173B0773
:102BD00020F44481512FCD2FD901359625E0E730DF
:102BE000F20701F7C093B0035093B1034093C703BA
:102BF000442309F45CC069E372E087E595E00E9434
:102C0000AB156091C70331E1639FB00111246B5193
:102C10007F4F87E595E00E94670769E472E087E5EA
:102C200095E00E94AB156091B00370E090E080E009
:102C30004AE00E9452156BE472E087E595E00E943D
:102C4000AB156091B10370E090E080E04AE00E9433
:102C5000521566E372E087E595E00E94431561E056
:102C600081E00E9452148091B1031F928F93809152
:102C7000B0031F928F9380EC92E09F938F9386E82E
:102C800093E09F938F930E9431248DB79EB708964F
:102C90000FB6F8949EBF0FBE8DBF66E873E08BE35E
:102CA00096E0DF91CF911F910F910C94AB1561E0ED
:102CB00081E00E94521468E670E08BE396E0DF91B9
:102CC000CF911F910F910C94670785ED8093BC0005
:102CD00080912F0590913005A0913105B09132057A
:102CE0000796A11DB11D23E0B695A79597958795E9
:102CF0002A95D1F72091BC0024FD03C010922D0528
:102D0000089540912F0550913005609131057091E3
:102D10003205452B462B472B69F30097A105B105DA
:102D200041F02AE22A95F1F700C00197A109B10903
:102D3000E1CF80912E050C941D0F1F920F920FB6BC
:102D40000F9211242F933F934F935F936F937F9331
:102D50008F939F93AF93BF93EF93FF9387E595E096
:102D60000E940908FF91EF91BF91AF919F918F91C0
:102D70007F916F915F914F913F912F910F900FBE77
:102D80000F901F9018951F920F920FB60F9211245B
:102D90002F938F939F93EF93FF93E0916705F091AB
:102DA00068058081E0916D05F0916E0582FD1BC084
:102DB0009081809170058F5F8F73209171058217CC
:102DC00041F0E0917005F0E0E95AFA4F958F809359
:102DD0007005FF91EF919F918F912F910F900FBEF2
:102DE0000F901F9018958081F4CF1F920F920FB60D
:102DF0000F9211242F933F938F939F93AF93BF9381
:102E00008091780390917903A0917A03B0917B032C
:102E10003091770323E0230F2D3758F50196A11D3C
:102E2000B11D209377038093780390937903A09347
:102E30007A03B0937B0380917C0390917D03A091F2
:102E40007E03B0917F030196A11DB11D80937C0389
:102E500090937D03A0937E03B0937F03BF91AF91C6
:102E60009F918F913F912F910F900FBE0F901F90C8
:102E7000189526E8230F0296A11DB11DD2CF1F92EF
:102E80000F920FB60F9211242F933F934F935F939E
:102E90006F937F938F939F93AF93BF93EF93FF9322
:102EA000E0917503F0917603309749F0A685B785D8
:102EB0008585968D91FF14C09C918923A1F4FF9183
:102EC000EF91BF91AF919F918F917F916F915F91A2
:102ED0004F913F912F910F900FBE0F901F9018951B
:102EE0009C91892361F7A389B4899C9185898095F8
:102EF00089238C93868997890197F1F7608D718D6D
:102F0000A685B785558538E020E0CB010197F1F71C
:102F1000822F90E095958795282F4C91452309F0B5
:102F20002068315091F7868D81FD20958091730343
:102F300090E001968F73992730917403381799F0B8
:102F4000A0917303B0E0AD5CBC4F2C9380937303EE
:102F5000828D938D0197F1F7A389B4898C9195891E
:102F6000892B8C93ACCF868D8160868FF1CF1F9299
:102F70000F920FB60F9211242F933F934F935F93AD
:102F80006F937F938F939F93AF93BF93EF93FF9331
:102F90008091B900887F803609F44AC0F0F5883204
:102FA00009F4A7C018F5803109F49BC0B8F4882350
:102FB00009F4F9C0883009F494C0FF91EF91BF91F2
:102FC000AF919F918F917F916F915F914F913F91C1
:102FD0002F910F900FBE0F901F901895883109F414
:102FE00088C0803251F780932B0514C0803409F4D7
:102FF0009DC040F48033B9F38833F9F680932B05F4
:1030000085ECB0C0803509F485C0883509F496C0D8
:10301000883499F60E946516D0CF883909F48CC09F
:1030200038F5883729F050F4883611F0803729F6C2
:1030300083E080932D051092320357C0883809F43D
:103040007BC0803919F0803809F0B7CF8091320306
:10305000803208F071C0E091320381E08E0F8093DE
:1030600032038091BB00F0E0EE5EFC4F80833DC0F8
:10307000803B39F0E0F4803A09F479C0883A09F0ED
:103080009CCF84E080932D051092110310921003C1
:10309000E091E403F091E50309958091100381111B
:1030A0000FC081E0809310031092F00209C0803CB1
:1030B00009F4A6CF883C09F4A3CF883B09F07DCF63
:1030C000E091110381E08E0F80931103F0E0E05155
:1030D000FD4F80818093BB0090911103809110037C
:1030E00029C0809108058093BB0085EC8093BC00CB
:1030F00064CF90912A0580912905981758F5E091A1
:103100002A0581E08E0F80932A05F0E0E75FFA4FF1
:103110008081E9CFE0912A0581E08E0F80932A0516
:103120008091BB00F0E0E75FFA4F808390912A0521
:10313000809129059817C8F285E8D8CFE0912A0533
:1031400081E08E0F80932A058091BB00F0E0E75F5D
:10315000FA4F808380912C0581115CCF81E08093B0
:10316000070584EA8093BC0010922D0526CF85ECDC
:103170008093BC0010922D0580913203803230F490
:10318000E0913203F0E0EE5EFC4F1082609132037A
:1031900070E0E091E203F091E30382E193E00995AE
:1031A000109232030ACF10922B0534CFFC012081FC
:1031B00030ED320F3A3068F4022E000C330B2053FE
:1031C0003109FC0181818053FAE02F9F800D112489
:1031D000089520E0F6CFEF92FF920F931F93CF93C5
:1031E000DF93CDB7DEB72B970FB6F894DEBF0FBED7
:1031F000CDBF8C017A014BE050E0CE0101960E94D8
:10320000CA23CE010A960E94D61890E08053984FA8
:10321000F80191838083E981E154E33118F50E2EA2
:10322000000CFF0BEA5EF64E0C942B246919321940
:1032300032197D19321967193219321932192919BF
:103240003219321970197B19791932193219321958
:1032500077198A818136B9F18B818E36B1F187E099
:10326000F8018283CE0105960E94D618F801838367
:1032700048E050E0B701CE0101960E94CA23CE017A
:1032800001960E94D618F8018583CE0104960E940B
:10329000D618F8018683CE0107960E94D618F80149
:1032A0008783C8010E94CD0CF80184832B960FB64A
:1032B000F894DEBF0FBECDBFDF91CF911F910F916C
:1032C000FF90EF90089581E0CBCF86E0C9CF82E0F8
:1032D000C7CF8B81823711F088E0C2CF84E0C0CFA6
:1032E0008B81823711F085E0BBCF83E0B9CF89E0D5
:1032F000B7CF8AE0B5CF8BE0B3CF8CE0B1CFCF931F
:10330000DF9310925A051092590588EE93E0A0E0E1
:10331000B0E080935B0590935C05A0935D05B0934E
:103320005E052AE032E0309358052093570525ECDE
:1033300030E0309364052093630524EC30E0309353
:1033400066052093650520EC30E0309368052093F6
:10335000670521EC30E030936A052093690522EC83
:1033600030E030936C0520936B0526EC30E0309311
:103370006E0520936D0510927005109271051092E4
:103380007205109273051092F7051092F60580935E
:10339000F8059093F905A093FA05B093FB058CE12D
:1033A00092E09093F5058093F4054BE06AE08CE899
:1033B00096E00E94490943E062E08DE696E00E94B3
:1033C000490984EF91E0A0E0B0E080934D0690932E
:1033D0004E06A0934F06B09350068AE0EEE4F1E06B
:1033E000ABE5B6E001900D928A95E1F71092650683
:1033F00092E09093660610926B0610926C06109203
:103400003E0610923D062EE232E030933C062093B9
:103410003B0687E280933F0680E1809343069093CA
:1034200044061092450698E09093460680933A062B
:103430008CE18093390686E08093380650E040E0C6
:1034400081E697E9A3E9BEEFBA016370772721E02F
:103450006115710509F020E0FA01319630E0E901CB
:10346000C359DE4F8C179D0738F0AD01421B530B3B
:10347000840F951FAF01E8CF509334064093330675
:1034800021E0422F4150550BFA01E85AF14FE491E7
:103490006115710519F4223009F4EF5FF0E031E0B5
:1034A000320F8E179F0720F08E1B9F0B232FE9CF23
:1034B000209335068F5F8093360683E396E00E9463
:1034C000CD0C8093370642E351E05093230640939E
:1034D000220684E080932406109225062FE720938D
:1034E000280681E090E0909327068093260650936B
:1034F00012064093110635E030931306109214061D
:103500002093170690931606809315065093010694
:103510004093000636E03093020610920306209393
:1035200006069093050680930406DF91CF910895D7
:10353000CF93DF93CDB7DEB7CB56D1090FB6F89452
:10354000DEBF0FBECDBF789484B5826084BD84B5E4
:10355000816084BD85B5826085BD85B5816085BD8E
:1035600080916E00816080936E0010928100809146
:1035700081008260809381008091810081608093CE
:103580008100809180008160809380008091B100F3
:1035900084608093B1008091B00081608093B0001E
:1035A00080917A00846080937A0080917A008260B2
:1035B00080937A0080917A00816080937A00809174
:1035C0007A00806880937A001092C100E0916705CC
:1035D000F091680512E01083E0916305F0916405B5
:1035E0001082E0916505F09166058FEC8083109262
:1035F0006F05E0916B05F0916C0586E08083E091AA
:103600006905F0916A05808180618083E091690598
:10361000F0916A05808188608083E0916905F0916E
:103620006A05808180688083E0916905F0916A0570
:1036300080818F7D80838CE896E00E94720C8DE6FD
:1036400096E00E94720C8CE896E00E94410C0E9469
:10365000060F81E0809333058FE380935505109228
:103660003405109256050E943E0F8823B9F010923F
:103670003E0610923D0687E280933F061092400678
:10368000109241061092420680E180934306109307
:1036900044061092450688E0809346060E94060F75
:1036A0001092400680914406823018F098E0909382
:1036B000400690914506992339F0813029F4809194
:1036C000400684608093400662E370E080E090E012
:1036D0000E94D309609146068BE396E00E94921106
:1036E00068EE73E080E090E00E94D30960E38BE332
:1036F00096E00E9411140BE416E4C8010197F1F75B
:1037000060E38BE396E00E941114C8010197F1F782
:1037100060E38BE396E00E94111483E592E0019749
:10372000F1F760E28BE396E00E941114809140066D
:1037300080620E94411484E0809341068CE00E94E4
:1037400041140E94811482E08093420686E00E9428
:10375000411482E00E9441148BE39FE10197F1F74D
:103760000E94060F88E48093B8008EE00E947813D0
:10377000682F637E8EE00E94791160E084E00E94F1
:10378000180960E085E00E94180960E086E00E9468
:10379000180960E089E00E94180961E088E00E9451
:1037A000180961E087E00E94180960E087E00E9444
:1037B000EA0861E088E00E94EA0880EB91E19093DA
:1037C00035018093340180913601909137019F77C4
:1037D0008F60909337018093360180E40E944114FA
:1037E0000CEE11E034EFE32E31E0F32ED8016D91B1
:1037F0008D018BE396E00E942A14E016F106B1F7E2
:1038000088E40E94411494EEE92E91E0F92E2CEE0A
:10381000C22E21E0D22E8701F80161918F018BE346
:1038200096E00E942A14C016D106B1F780E50E94E6
:103830004114BCEDCB2EB1E0DB2E84EEA82E81E04E
:10384000B82ED6016D916D018BE396E00E942A148B
:10385000AC14BD04B1F788E50E944114F7016191F1
:103860007F018BE396E00E942A14E016F106B1F77F
:1038700080E60E94411404ED11E0D8016D918D01A4
:103880008BE396E00E942A14B1E00C3D1B07A9F7D8
:1038900088E60E9441140CEC11E0A4EDEA2EA1E0B0
:1038A000FA2EF80161918F018BE396E00E942A14B1
:1038B000E016F106B1F780E70E94411404EC11E034
:1038C000FCECEF2EF1E0FF2ED8016D918D018BE322
:1038D00096E00E942A14E016F106B1F7CE01019697
:1038E0000E94CB1288E0FE013196A3E3B6E001907E
:1038F0000D928A95E1F780913806853A19F481E0B6
:10390000809381038FE00E94781390E0880F892FC5
:10391000881F990B892B61F041EA50E06AEA70E058
:10392000CE0101960E94EB18CE0101960E949613DB
:103930008091330690913406863E974060F44CE8BF
:1039400050E065E970E0CE0101960E94EB18CE01CF
:1039500001960E9496138CE896E090934806809317
:10396000470681E080935F0670E060E08CE00E9493
:10397000230B0E94060A6B017C010E94120A81112E
:1039800011C00E94060A6C197D098E099F09613DCC
:1039900077408105910530F460E070E0CB010E9432
:1039A000D309EBCF68EC70E080E090E00E94D3098F
:1039B00010926B0680916706843029F0893019F0E7
:1039C00081E08093800370E060E087E00E94230B39
:1039D00062E070E089E00E94230B68EC70E080E018
:1039E00090E00E94D309909181038091800391110E
:1039F0001EC4811129C48FEF90E00E948B1483357F
:103A000009F4DDC085E0E8E5F1E0A8E0B4E001906C
:103A10000D928A95E1F785E0EDE5F1E0ADE0B4E0E7
:103A200001900D928A95E1F785E0E2E6F1E0A2E1EE
:103A3000B4E001900D928A95E1F785E0E7E6F1E0C8
:103A4000A7E1B4E001900D928A95E1F785E0ECE6FC
:103A5000F1E0ACE1B4E001900D928A95E1F785E0E8
:103A6000E1E7F1E0A1E2B4E001900D928A95E1F77F
:103A700085E0E6E7F1E0A6E2B4E001900D928A95D8
:103A8000E1F785E0EBE7F1E0ABE2B4E001900D9205
:103A90008A95E1F785E0E0E8F1E0A0E3B4E0019089
:103AA0000D928A95E1F785E0E5E8F1E0A5E3B4E061
:103AB00001900D928A95E1F785E0EAE8F1E0AAE34A
:103AC000B4E001900D928A95E1F785E0EFE8F1E02E
:103AD000AFE3B4E001900D928A95E1F785E0E4E967
:103AE000F1E0A4E4B4E001900D928A95E1F785E05D
:103AF000E9E9F1E0A9E4B4E001900D928A95E1F7DB
:103B000085E0EEE9F1E0AEE4B4E001900D928A9533
:103B1000E1F785E0E3EAF1E0A3E5B4E001900D927E
:103B20008A95E1F785E0E8EAF1E0A8E5B4E00190E4
:103B30000D928A95E1F785E0EDEAF1E0ADE5B4E0BC
:103B400001900D928A95E1F785E0E2EBF1E0A2E6C3
:103B5000B4E001900D928A95E1F785E0E7EBF1E0A2
:103B6000A7E6B4E001900D928A95E1F70E948D14CA
:103B700063E58FEF90E00E9489146EE180E091E0B0
:103B80000E94891461E081E091E00E94891461E063
:103B90008AE091E00E94891461E08BE091E00E944C
:103BA000891461E08CE091E00E94891461E08DE06D
:103BB00091E00E94891485E692E00E9498150E9487
:103BC000AE1482E792E00E94981508E014E0C12C40
:103BD000D12C760171E1B72E8C2D813009F049C3CB
:103BE00082E892E00E9498150B5F1F4FFFEFCF1AFB
:103BF000DF0AEF0AFF0A23E3C216D104E104F1044D
:103C000059F70E94A51160E080E00E94521466EB13
:103C100070E08BE396E00E94670761E080E00E941D
:103C200052146AEA72E08BE396E00E94AB1560EDF5
:103C300077E080E090E00E94D3090E94811462E363
:103C400070E080E090E00E94D30966E8E62E63E031
:103C5000F62E772473942AEC422E22E0522E30EC7A
:103C6000A32E32E0B32E4EEF842E912C50E0252E61
:103C700050E0352E82E296E00E942C0D81E196E024
:103C80000E942C0D80E096E00E942C0D0E94060AF6
:103C90000091DE031091DF032091E0033091E103F6
:103CA000601B710B820B930B0091DA031091DB0305
:103CB0002091DC033091DD036017710782079307C1
:103CC00008F446C38091D903882309F441C31092B4
:103CD000460660E08BE396E00E9492110E94060A7D
:103CE0000091D5031091D6032091D7033091D803CA
:103CF000601B710B820B930B6C3D75408105910528
:103D000040F08091D403882321F01092D3031092C5
:103D1000D4038091D203882341F10E94060A0091C6
:103D2000CE031091CF032091D0033091D103AB018A
:103D3000BC01401B510B620B730B2091CC033091E3
:103D4000CD03A8EEB3E02A9FC0012B9F900D3A9FB0
:103D5000900D1124092E000CAA0BBB0B4817590714
:103D60006A077B0710F07092CB038091CB03882306
:103D700089F18091CA03882309F4F0C21092CA0322
:103D80001092C9031092C8036091C70370E06E5F80
:103D90007F4F83E00E94230B0E94060A6093C303B7
:103DA0007093C4038093C5039093C6038091C103AD
:103DB0009091C203019709F0CEC28091BF03909108
:103DC000C003892B09F0C7C2709231011092D2034F
:103DD0001092CB038091BB03882351F10E94060A05
:103DE0000091C3031091C4032091C5033091C60311
:103DF000601B710B820B930B683B7B408105910527
:103E0000B8F089E00E94C1088130910589F42091C1
:103E1000B80321110DC320913101222309F4DEC220
:103E20009093C0038093BF037092CB037092CA0338
:103E300081E10E94C108892B09F44BC38091B20330
:103E4000882309F47CC11092B203CE0101960E942E
:103E5000CB1288E0FE013196A3E3B6E001900D920B
:103E60008A95E1F72091B0038091B10390913806D3
:103E7000E09139063091C703332309F420C3FCE3F2
:103E80006E2F70E09F9F600D711D1124482F50E030
:103E90002F9F400D511D1124415051096417750782
:103EA00009F00DC37092AF0340913A06411142C030
:103EB000332309F43FC029133DC08E133BC00E9439
:103EC000A5110E94060A6093DE037093DF038093BE
:103ED000E0039093E10361E086E00E94521464E005
:103EE0008BE396E00E94600760E080E00E9452143D
:103EF0006091C703E1E16E9FB00111246B517F4FC8
:103F00008BE396E00E9467078091B1038093AE0334
:103F10001092C0031092BF031092B8037092BB03BB
:103F20007092CB037092CA037092B3037092B40381
:103F30001092AF03909139068091AE039817C9F0A3
:103F400089E00E94C1080197A1F48091B3038823FE
:103F500081F061E086E00E94521463EE70E08BE332
:103F600096E00E9467070E94AD151092B30310926D
:103F7000D3038091AF038823B9F180913A068E3143
:103F800098F160E088E00E94EA087092B5030E9410
:103F9000A5110E94060A6093DE037093DF038093ED
:103FA000E0039093E10361E081E00E94521480916C
:103FB0003A0680FF87C28091B1031F928F93809150
:103FC000B0031F928F93BF92AF92FF92EF920E9425
:103FD000312466E873E08BE396E00E94AB150FB6E0
:103FE000F894DEBF0FBECDBF80913A068C3309F442
:103FF0005CC01F928F93809139061F928F9380919E
:1040000038061F928F938BEB92E09F938F93FF92D2
:10401000EF920E94312461E088E00E94521466E829
:1040200073E08BE396E00E94AB1561E080E00E94B4
:10403000521460913A0663708BE396E00E94600729
:104040008091330690913406805D97409F938F93C3
:10405000809135061F928F93809136061F928F9321
:10406000209137062150330B47E0429FC001439F08
:10407000900D112480509F4F9F938F9380913A060B
:104080001F928F93809139061F928F9380913806EB
:104090001F928F935F924F92FF92EF920E94312472
:1040A0000FB6F894DEBF0FBECDBF8091360690915B
:1040B000D303891709F443C08093D3030E9481146A
:1040C000809137068150990B27E0289FB001299FE6
:1040D000700D112460507F4F8BE396E00E94AB156A
:1040E0006BED70E08BE396E00E94670780913306EA
:1040F00090913406805D97409F938F938091350611
:104100001F928F93809136061F928F932DED32E090
:104110003F932F93FF92EF920E94312460E088E05A
:104120000E94521466E873E08BE396E00E94AB15A0
:104130000E94AD150FB6F894DEBF0FBECDBF8DE661
:1041400096E00E94410CAC961FAEAC978DE696E0CF
:104150000E94F20B892B09F45EC00E94B8128D3FB9
:1041600009F059C00E94B812082F0E94B812940199
:10417000201B31098217130609F04DC0053608F0DF
:1041800004E6C12C90E1D92E612C10E00E5F1F4F88
:104190008DE696E00E94F20B892B51F00E94B81236
:1041A000E1E0F0E0EC0FFD1FE60DF11D808363946C
:1041B000862D90E00817190724F0B1E0CB1AD1083A
:1041C00039F78C0F9D1FFC0180818111D9C20981B3
:1041D0001A810E94A5110E94060A6093DE03709363
:1041E000DF038093E0039093E1036AE070E080E0F6
:1041F00090E00E94D3096EEF8DE696E00E94960B48
:10420000023009F4DCC108F067C1002309F497C14A
:10421000013009F49FC12114310409F42BCD0E940F
:10422000F507882309F415CD0E94000012CD60E047
:104230008823A9F084E00E9452146DE472E08BE3BD
:1042400096E00E94AB15FFCF60E084E00E9452141C
:1042500065E572E08BE396E00E94AB15F4CF84E055
:104260000E9452146DE572E08BE396E00E94AB155C
:10427000EACF4AE0C11069C061E070E080E090E000
:104280000E94521569E087E595E00E946007D80119
:104290006C9170E090E080E04AE00E94521569E085
:1042A00087E595E00E946007F801618170E090E089
:1042B00080E04AE00E94521569E087E595E00E949F
:1042C0006007D80112966C9170E090E080E04AE0BF
:1042D0000E94521569E087E595E00E946007F801A9
:1042E000638170E090E080E040E10E94521569E057
:1042F00087E595E00E946007D80114966C9170E004
:1043000090E080E04AE00E94521569E087E595E080
:104310000E946007F80164816B9DB00111246B510C
:104320007F4F41E150E0CE0101960E94CA23BE01B9
:104330006F5F7F4F87E595E00E94AB1566E372E003
:1043400087E595E00E9443154FCCC701B60198CF91
:104350000E94A511C3CC1092310138CD8091BE03CB
:10436000882309F433CD8091BD037092BC03882368
:10437000A1F06091C8037091C90383E00E94230BF0
:104380000E94060A6093C3037093C4038093C5031D
:104390009093C6037092BB030CC08091B9039091B7
:1043A000BA038130910541F461E070E083E00E943E
:1043B000230B1092BE030ACD0297D9F70E94060A7A
:1043C0006093C3037093C4038093C5039093C603A3
:1043D00062E070E083E00E94230BDCCF8091B603A3
:1043E0009091B70361E0019709F060E088E00E94D6
:1043F000EA080E94A5110E94060A6093DE037093EA
:10440000DF038093E0039093E1031092C0031092C6
:10441000BF031092B503109231011092B4031092B1
:10442000B3030E94AD151092D3031092BB0300CDCD
:104430008091BC03882309F4FBCC8091B503909153
:10444000BD03992311F160E081110DC08091B60385
:104450009091B703019751F48091B9039091BA03F9
:10446000892B21F461E088E00E94EA081092C903D8
:104470001092C8031092B8031092B4031092BE03B6
:104480001092BC031092BD03D0CF60E0811107C031
:104490008091B6039091B703019721F461E088E021
:1044A0000E94EA081092BA031092B9031092B8035E
:1044B0001092B4031092BE031092BC03B6CF1092B8
:1044C000AF03F2CC6DED70E08BE396E00E946707DE
:1044D0008BCD7092B20333CE033009F48EC004301A
:1044E00009F099CEA5E6B0E0AC0FBD1FA10FB11D3C
:1044F00084E0FE01339601900D928A95E1F761E028
:1045000086E00E94521465E08BE396E00E9460070B
:10451000153009F080CE8E010B591F4FCC24C39467
:10452000D12CD80111966C91C601B4E0CB16D10400
:104530000CF423C1885F9E4F0E948914FAC061E089
:104540008DE696E00E94960B6EEF8DE696E00E9457
:10455000960B61CE61E086E00E94521465E08BE329
:1045600096E00E94600785E0189FD0011124A85FA3
:10457000BB4FFE01339601900D928A95E1F71233FD
:1045800009F049CE61E087E00E94EA080E948D149C
:1045900061E086E00E94521469ED70E08BE396E0E2
:1045A0000E94670762E370E080E090E00E94D30918
:1045B0001092D30360E087E00E94EA082CCE88E0E6
:1045C000FE013396A3E3B6E001900D928A95E1F7E0
:1045D00083E396E00E94961361E087E00E94EA0878
:1045E00062E370E080E090E00E94D30960E087E041
:1045F0000E94EA081092D3030ECE84E0FE013396A7
:10460000DE01A559BF4F01900D928A95E1F7113057
:1046100081F588E00E94C108019709F560E080E01B
:104620000E94521468EC70E08BE396E00E946707EA
:104630001093D4030E94060A6093D5037093D603A7
:104640008093D7039093D80361E087E00E94EA0843
:1046500062E370E080E090E00E94D309ABCFAC96BB
:104660006FADAC9770E06E5F7F4F83E00E94230BCD
:10467000EBCF123021F470E060E08EE0F7CF133022
:10468000C9F4AC966FADAC9780E091E00E948914BC
:1046900062E370E080E090E00E94D30980E091E066
:1046A0000E948B14682F70E07093850360938403DD
:1046B00086E0DCCF1430B9F4AC966FADAC9781E0F6
:1046C00091E00E94891462E370E080E090E00E9433
:1046D000D30981E091E00E948B1490E090938303D2
:1046E00080938203B1CF153009F0AECF90E080E027
:1046F00025E0289FF001299FF00D1124E85FFB4F72
:10470000DF01322F1D923A95E9F701968333910527
:1047100081F70E948D1462E370E080E090E00E94D7
:10472000D3091092D30390CF83E0C816D10409F0C7
:10473000F8CEEFEFCE1ADE0A0F5F1F4FF6E0CF166E
:10474000D10491F761E087E00E94EA0862E370E03B
:1047500080E090E00E94D3090E94AE1460E087E000
:104760000E94EA0861E086E00E94521466EC70E064
:104770008BE396E00E9467074ECD875F9E4FDCCEAD
:104780006CEFE3CE8DE696E00E94290C8CE896E073
:104790000C94290CFB01DC0102C005900D924150E4
:1047A0005040D8F70895F999FECF92BD81BDF89A8F
:1047B000992780B50895262FF999FECF1FBA92BD8B
:1047C00081BD20BD0FB6F894FA9AF99A0FBE0196F2
:1047D0000895991B79E004C0991F961708F0961B5D
:1047E000881F7A95C9F780950895AA1BBB1B51E1D4
:1047F00007C0AA1FBB1FA617B70710F0A61BB70B51
:10480000881F991F5A95A9F780959095BC01CD01F5
:104810000895A1E21A2EAA1BBB1BFD010DC0AA1F01
:10482000BB1FEE1FFF1FA217B307E407F50720F019
:10483000A21BB30BE40BF50B661F771F881F991F94
:104840001A9469F760957095809590959B01AC01DD
:10485000BD01CF010895EE0FFF1F0590F491E02DEB
:104860000994AEE0B0E0E7E3F4E20C94E0260D89B1
:104870001E8986E08C831A8309838FEF9FE79E83CE
:104880008D83AE01475E5F4F6F89788DCE010196B3
:104890000E9454242F813885020F131FF8011082C3
:1048A0002E96E4E00C94FC26ABE0B0E0EAE5F4E2FE
:1048B0000C94D2267C013B018A01FC0117821682EE
:1048C000838181FFC8C1CE0101965C01F70193810C
:1048D000F30193FD859193FF81913F01882309F4B2
:1048E00053C1853239F493FD859193FF81913F0146
:1048F000853229F4B70190E00E944426E7CF912C3D
:10490000212C312CFFE1F31538F08B3211F190F4AA
:10491000803209F1833229F137FC3CC020ED280FA9
:104920002A3050F536FE20C08AE0989E200D1124D2
:10493000922E06C08D3291F0803371F7689430F872
:10494000F30193FD859193FF81913F018111DACFAE
:1049500021C0689431F8689432F8F2CF689433F843
:10496000EFCF689434F8ECCFEAE02E9E200D1124AE
:10497000222E689435F8E4CF8E3229F436FC04C137
:10498000689436F8DDCF8C3619F4689437F8D8CFB0
:104990008836B1F2982F9F7D95549330E0F083369E
:1049A000A1F18337C1F1833509F063C02801F2E03A
:1049B0004F0E511CF801C080D180692D70E036FC8B
:1049C00002C06FEF7FEFC6010E942E264C01689453
:1049D00037F882010AC00C5F1F4FFFE3F983882478
:1049E0008394912C6501E89437F833FE2DC0522C46
:1049F0008114910471F5552009F468CFB70180E264
:104A000090E00E9444265A94F6CFF8018081898371
:104A10000E5F1F4FE4CF2801F2E04F0E511CF8014A
:104A2000C080D180692D70E036FC02C06FEF7FEF4F
:104A3000C6010E9439264C018201D5CFB70180E220
:104A400090E00E9444262A942814190409F0B0F733
:104A5000CECFF60137FC859137FE81916F01B7010A
:104A600090E00E94442651105A94F1E08F1A910868
:104A7000BFCF843619F0893609F077C0F80137FEC8
:104A80006BC060817181828193810C5F1F4FF32D18
:104A9000FF763F2E97FF09C09095809570956195A0
:104AA0007F4F8F4F9F4F689437F82AE030E0A50181
:104AB0000E947426C82ECA188C2C432C36FE0CC0BB
:104AC000E89440F8C91440F434FE05C032FC03C039
:104AD000F32DFE7E4F2E892C44FE95C0FE01EC0D79
:104AE000F11D8081803309F087C0242D297E422E5C
:104AF000842D8870582E43FC95C040FE8FC09C2C9E
:104B0000821418F42C0C922C981844FE91C0B70112
:104B100080E390E00E94442642FE09C088E790E0CE
:104B200041FE02C088E590E0B7010E944426C91406
:104B300008F48AC0CA94D12C9FEFC91AD90ACA0CAA
:104B4000DB1CF60182916F01B70190E00E944426C0
:104B5000AC14BD04B1F74FCF60817181072E000CFA
:104B6000880B990B0E5F1F4F92CFD32CE894D4F88B
:104B70002AE030E0853739F1232D297FD22E8F3678
:104B800001F148F48835A9F0F701868197812B96C9
:104B9000E2E10C94EE26803749F08837A9F7D4FE7D
:104BA00002C06894D2F820E130E00DC06894D4F8D7
:104BB000F6CF34FE03C0822F8660D82E20E132E08B
:104BC00002C028E030E0F801D7FE0FC0608171819B
:104BD000828193810C5F1F4FA5010E947426C82E0D
:104BE000CA183D2CE89437F867CF6081718190E056
:104BF00080E00E5F1F4FF0CF42FC02C0839478CF5D
:104C00008394839475CF842D867809F471CFF6CF81
:104C1000B70180E290E00E94442683948214C0F39E
:104C2000512C73CF522C5818821408F46ECFF8CF41
:104C3000842D867809F47BCF8BE241FE80E247FC2D
:104C40008DE2B70190E071CFB70180E390E00E9460
:104C500044269A946CCF8FEF9FEF99CFFC0105907B
:104C6000615070400110D8F7809590958E0F9F1F6E
:104C70000895FC016150704001900110D8F78095B3
:104C800090958E0F9F1F08950F931F93CF93DF93DF
:104C9000182F092FEB018B8181FD09C01FEF0FEF4A
:104CA000812F902FDF91CF911F910F91089582FF57
:104CB00014C02E813F818C819D81281739073CF4D7
:104CC000E881F981CF0101969983888310838E81D1
:104CD0009F8101969F838E83E3CFE885F985812F9D
:104CE0000995892BA1F3DACFFA01AA27283051F1CF
:104CF000203181F1E8946F936E7F6E5F7F4F8F4F0D
:104D00009F4FAF4FB1E03ED0B4E03CD0670F781F6B
:104D1000891F9A1FA11D680F791F8A1F911DA11D50
:104D20006A0F711D811D911DA11D20D009F4689489
:104D30003F912AE0269F11243019305D3193DEF631
:104D4000CF010895462F4770405D4193B3E00FD0E7
:104D5000C9F7F6CF462F4F70405D4A3318F0495DD2
:104D600031FD4052419302D0A9F7EACFB4E0A695B5
:104D70009795879577956795BA95C9F700976105D7
:104D8000710508959B01AC010A2E0694579547952D
:104D900037952795BA95C9F7620F731F841F951F22
:104DA000A01D08952F923F924F925F926F927F9233
:104DB0008F929F92AF92BF92CF92DF92EF92FF922B
:104DC0000F931F93CF93DF93CDB7DEB7CA1BDB0BD7
:104DD0000FB6F894DEBF0FBECDBF09942A8839887C
:104DE00048885F846E847D848C849B84AA84B98483
:104DF000C884DF80EE80FD800C811B81AA81B9818F
:104E0000CE0FD11D0FB6F894DEBF0FBECDBFED01A2
:104E1000089517E0C3E3D7E004C0FE010E942B24ED
:0C4E20002196C433D107C9F7F894FFCFE6
:104E2C004D696E6767750053656E696E000053655A
:104E3C006C61736100526162750000004B616D69B9
:104E4C007300004A756D27617400536162747500BC
:104E5C000001C001000000001400C8009001E8032C
:104E6C00E803C800881300004000140054007EFFC3
:104E7C0006000100000000EF01062D400A01062D7E
:104E8C003C0101071E780201080F78030109007824
:104E9C000401092D780B010A0F7805010B00780627
:104EAC00010B2D780B010C1E7807010D0F780801F2
:104EBC000E007809010E2D780E0107190402010865
:104ECC0005040301082D0404010919040B01093719
:104EDC000405010A230406010B0F040F0000000057
:104EEC00BF0EBC0E010C151717150C0104160F057F
:104EFC00060D16040004060505041C1C00040A110A
:104F0C000A0400000000040A040000000000000471
:104F1C000000000000000000960B8B07AD11950BF4
:104F2C00F20B080C7D0B000000002B088B07B80758
:104F3C007808E907C707DB07000000004A111D11BC
:104F4C00AD11950B16110311F410000000002A147A
:104F5C008B07AD11080D0D0A0042656C206265725D
:104F6C00696B75746E7961203A20003A0065727233
:104F7C003078313000657272307832300065727280
:104F8C00307833300073657474696E6720617761B3
:104F9C006C004A616477616C206861726920696E8B
:104FAC00690044415441202878322920696E6920D7
:104FBC0045726F727220746964616B2064696775E5
:104FCC006E616B616E202D2D2D0042793A20416C63
:104FDC00696D204D756C7961646900253032643AD5
:104FEC00253032643A2530326400253032643A255B
:104FFC003032643A253032642025732C202530322F
:0C500C00642F253032642F253032640000
:00000001FF
